S0160000756C747261736F6E69635F6170702E737265632A
S11300000C942A000C9447000C9447000C9447006D
S11300100C9447000C9447000C9447000C94470040
S11300200C9447000C94F9010C9447000C9447007D
S11300300C9447000C9447000C9447000C94470020
S11300400C9447000C9447000C9447000C94470010
S11300500C94470011241FBECFE5D8E0DEBFCDBF0E
S113006010E0A0E6B0E0E6E5F6E002C005900D92EF
S1130070AC36B107D9F720E0ACE6B0E001C01D9280
S1130080A037B207E1F70E945D020C9429030C9497
S1130090000095B3946095BB882324F495B39068CD
S11300A095BB03C095B39F7795BB86FF04C095B3FA
S11300B0906495BB03C095B39F7B95BB85FF04C03B
S11300C095B3906295BB03C095B39F7D95BB84FFA8
S11300D004C095B3906195BB03C095B39F7E95BB57
S11300E095B3986095BBEFE9FFE03197F1F700C055
S11300F0000095B3977F95BBEFE9FFE03197F1F7E7
S113010000C0000083FF04C095B3906895BB03C092
S113011095B39F7795BB82FF04C095B3906495BB5C
S113012003C095B39F7B95BB81FF04C095B39062D8
S113013095BB03C095B39F7D95BB80FF04C085B379
S1130140806185BB03C085B38F7E85BB85B3886022
S113015085BB8FE99FE00197F1F700C0000085B3EC
S1130160877F85BBEFE9FFE03197F1F700C000001E
S11301700895CF93DF93EC0103C00E9449002196B8
S113018088818111FACFDF91CF91089595B39B7F38
S113019095BB882324F495B3906895BB03C095B3AD
S11301A09F7795BB86FF04C095B3906495BB03C04D
S11301B095B39F7B95BB85FF04C095B3906295BBB7
S11301C003C095B39F7D95BB84FF04C095B3906134
S11301D095BB03C095B39F7E95BB95B3986095BBC3
S11301E0EFE9FFE03197F1F700C0000095B3977F86
S11301F095BBEFE9FFE03197F1F700C0000083FF02
S113020004C095B3906895BB03C095B39F7795BB25
S113021082FF04C095B3906495BB03C095B39F7BE4
S113022095BB81FF04C095B3906295BB03C095B3A1
S11302309F7D95BB80FF04C085B3806185BB03C0EF
S113024085B38F7E85BB85B3886085BB8FE99FE0CE
S11302500197F1F700C0000085B3877F85BBEFE904
S1130260FFE03197F1F700C00000089584B38C6F6C
S113027084BB83E00E94C6008FE79EE30197F1F7F9
S113028000C0000083E00E94C6008FE79EE3019750
S1130290F1F700C0000083E00E94C6008FE79EE3F0
S11302A00197F1F700C0000082E00E94C60088E2D6
S11302B00E94C60081E00E94C60086E00E94C6003B
S11302C08CE00E94C6009FEF29EF80E0915020400F
S11302D08040E1F700C0000008954F925F926F9252
S11302E07F928F929F92AF92BF92CF92DF92EF92C2
S11302F0FF92CF93DF93CDB7DEB7A8970FB6F894EC
S1130300DEBF0FBECDBF9B01AC0199238CF5509588
S11303104095309521953F4F4F4F5F4F812C912C45
S11303205401839428C0CA01B9012AE030E040E0B6
S113033050E00E94F00226013701EFEF4E1A5E0AE8
S11303406E0A7E0ACC0CDD1CCC0CDD1CE1E0F0E076
S1130350EC0FFD1FEC0DFD1D60837183828393837D
S1130360211531054105510561F07301620106C093
S1130370812C912C5401C12CD12C760155239CF64F
S113038002C07301620189288A288B28C1F08DE29A
S11303900E94490014C081E0C81AD108E108F1089C
S11303A0F601EE0FFF1FEE0FFF1F81E090E08C0FB0
S11303B09D1FE80FF91F8081805D0E9449001C1475
S11303C01D041E041F043CF3A8960FB6F894DEBF68
S11303D00FBECDBFDF91CF91FF90EF90DF90CF9014
S11303E0BF90AF909F908F907F906F905F904F9051
S11303F008951F920F920FB60F9211248F939F931B
S1130400AF93BF9380916C0090916D00A0916E00AA
S1130410B0916F000196A11DB11D80936C00909363
S11304206D00A0936E00B0936F00BF91AF919F9148
S11304308F910F900FBE0F901F901895CF93DF935D
S113044010926C0010926D0010926E0010926F006A
S11304501FBC8EB581648EBD88B7806288BF08B624
S113046005FEFDCFC6B5D7B58EB58F7B8EBD88B7DB
S1130470806288BF08B605FEFDCFE6B5F7B51EBCA1
S113048088B7806288BF17BC16BC1DBC1CBC2091F9
S11304906C0030916D0040916E0050916F0061E0EE
S11304A070E0CB010E94BE02EC1BFD0B6E0F7F1FA0
S11304B0811D911DDF91CF9108950E94360189B766
S11304C0846089BF8FB780688FBF81B3806181BB2F
S11304D081B3806281BB82B38F7E82BB82B38F7D06
S11304E082BB81B38F7B81BB81B3806881BB82B3C4
S11304F0806882BB2FEF80E792E0215080409040DB
S1130500E1F700C0000082B38F7782BB0E941E0215
S11305109B01AC01A8E2B7E80E940F0320E038E495
S113052048EE51E00E94CE0269017A0181E00E9406
S1130530C60080E690E00E94B900C701B6010E949F
S11305406D0122E3C216D104E104F10438F082B350
S1130550806282BB82B38F7E82BB06C082B380611D
S113056082BB82B38F7D82BB8FEF97E823E18150FA
S113057090402040E1F700C00000B9CFDB018F9329
S11305809F930E940F03BF91AF91A29F800D911D75
S1130590A39F900DB29F900D11240895A1E21A2EED
S11305A0AA1BBB1BFD010DC0AA1FBB1FEE1FFF1F13
S11305B0A217B307E407F50720F0A21BB30BE40B63
S11305C0F50B661F771F881F991F1A9469F76095AA
S11305D07095809590959B01AC01BD01CF01089564
S11305E0052E97FB1EF400940E94070357FD07D0C5
S11305F00E94CE0207FC03D04EF40C9407035095DE
S11306004095309521953F4F4F4F5F4F08959095FA
S11306108095709561957F4F8F4F9F4F08950E94ED
S11306201A03A59F900DB49F900DA49F800D911D5A
S113063011240895A29FB001B39FC001A39F700D20
S1130640811D1124911DB29F700D811D1124911DD6
S10906500895F894FFCFA9
S10F065664697374616E6365203D2000CC
S9030000FC
